:100800002067736D20696E74657266616365202070
:1008100000206D616B6520736D73002073656E64DD
:10082000696E6720736D7320200041540D0A0041EA
:10083000542B434D47463D310D0A0041542B434D47
:1008400047533D2239363737393536343336220D62
:100850000A002074696D6520746F206C65616420E6
:010860000097
:10093400E4FDFCC3ED9FEC9E5015E4FBFA0BBB00F9
:0F094400010ABA04F8BBFBF50DBD00010C80E4FD
:010953002281
:0B09CA00E4F580F590F5A075B0FF2269
:0F098600D287C2A7D2A6C2A5D2A530870280F71A
:01099500223F
:0E0996001209868F80D2A5C2A7C2A6C2A522D2
:0E09A4001209868F80D2A5D2A7C2A6C2A522B4
:100954007F381209967F0F1209967F061209967F37
:09096400011209967F1C0209969C
:1008EA008B088A09890AAB08AA09A90A12096D6044
:1008FA0013050AE50A7002050914F912096DFF12B7
:05090A0009A480E222B7
:0C09B200758920759850758DFDD28E223D
:10090F008B088A09890AAB08AA09A90A12096D601E
:10091F0013050AE50A7002050914F912096DFF1291
:05092F0009D580E22261
:0809D5008F993099FDC29922AF
:1008A6001209CA1209541209B2D2907F011209968E
:1008B6007BFF7A0879001208EA7FC01209967BFF4F
:1008C6007A0879111208EA7F647E001209343090A2
:1008D600DA7F011209967BFF7A08791B1208EA1261
:0408E600086180C75E
:100861007BFF7A08792A12090F7F647E001209340E
:100871007BFF7A08792F12090F7FF47E0112093468
:100881007BFF7A08793B12090F7FC87E0012093479
:100891007BFF7A08795212090F7F1A1209D57F64FA
:0508A1007E0002093495
:030000000209BE34
:0C09BE00787FE4F6D8FD75810A0208A6D7
:10096D00BB010689828A83E0225002E722BBFE0288
:09097D00E32289828A83E49322BB
:00000001FF
